:107000000C9473380C94643A0C9490380C94903827
:107010000C9490380C9490380C9490380C949038D0
:107020000C9490380C9490380C9490380C949038C0
:107030000C9490380C9490380C9490380C949038B0
:107040000C9490380C9490380C9490380C949038A0
:107050000C94903812011001000000088117620C96
:1070600000000102000109021900010100A01A0933
:1070700004000001000000000705020240000001BA
:107080006670040309043203550053004200700087
:1070900072006F006700200045006D00620065000F
:1070A0006400640065006400500072006F006A00B4
:1070B0006500630074007300000022037500730014
:1070C0006200700072006F00670042006100730090
:1070D000650020004D006F00640065000000038221
:1070E000708670BA700011241FBECFE5D8E0DEBFF5
:1070F000CDBF10E0A0E6B0E0EEE8FFE702C00590EB
:107100000D92AC3CB107D9F711E0ACECB0E001C096
:107110001D92A836B107E1F70E94F8380C94C53FDC
:107120000C9400380895089520E030E040EA5FE0D4
:1071300005C0FA013197F1F72F5F3F4F2817390744
:10714000C0F30895F8948BB78F718BBF19BE6F98F9
:107150008AB18F718AB986B78E7F86BF439833987C
:1071600087B78F7787BFE39808950F931F93CF93C7
:10717000DF93BFB7F894E199FECF27E0660F771F42
:10718000881F991F2A95D1F783E0FB018093570050
:10719000E89507B600FCFDCF0CED10E0AB01A1E0D7
:1071A000E8018881398120E0F901E80FF11DCF0164
:1071B000FA010C01A0935700E89511240E5F1F4FB0
:1071C0004E5F5F4FF1E00C351F0751F785E0FB0183
:1071D00080935700E89507B600FCFDCF81E18093CE
:1071E0005700E895BFBFDF91CF911F910F91089590
:1071F0000F931F93CF93DF930E94A2381ABAD49AA9
:1072000011BA17BA14BA919A909A00EA1FE0C8010D
:107210000197F1F7819B6CC089B390E0EC01C071DC
:10722000D07084FD20C080E090E00E94B03F8130AB
:1072300041F4E199FECF80E090E060E00E94B83F29
:1072400012C09198899AC8010197F1F7809B0BC0F1
:107250008998919AFE0184918F3F29F0E091CC00AA
:10726000F091CD0009951092D00084E590E76FE78A
:1072700070E74EED50E70E94623F81E060E979E3FC
:107280000E94EB3EF89481E08BBF82E08BBF789444
:107290000E94FB3D0E942C3F20EA3FE0DC9A80E008
:1072A00090E0F9013197F1F7019684369105C9F71D
:1072B000DC9880E090E0F9013197F1F7019684368F
:1072C0009105C9F7DC9A80E090E0F9013197F1F778
:1072D000019684369105C9F7DC9880E090E0F901C9
:1072E0003197F1F70196F3E080329F07C1F7D6CFCF
:1072F00020EA3FE0DC9A80E090E0F9013197F1F775
:10730000019641E0843F9407C1F7DC9880E090E06B
:10731000F9013197F1F7019684369105C9F7EACF63
:10732000CF92DF92EF92FF920F931F93DF93CF9351
:10733000CDB7DEB7C054D0400FB6F894DEBF0FBE55
:10734000CDBFEFB6F89481E06E010894C11CD11C4A
:10735000B60140E40E94823FF82E8091D100823035
:1073600009F062C08091D2009091D30080FF3CC0B0
:107370001092D0008130910529F41092CF00109224
:10738000CE0007C00197969587959093CF00809384
:10739000CE000F2D10E02CE131E0C901BE016F5F7E
:1073A0007F4F4F2D50E00E94A03F2FE32F1568F034
:1073B000E0E4F0E0E01BF10B9801245E3E4FC901D0
:1073C0006FEF70E0AF010E94A93F6091CE00709115
:1073D000CF00CB01805C9F4F8150904710F580E03B
:1073E00090E00E94B5381DC081E08093D0000F2D41
:1073F00010E02CED30E0C901B6014F2D50E00E94A5
:10740000A03F8FE38F1568F0E0E4F0E0E01BF10BA4
:10741000980124523F4FC9016FEF70E0AF010E9405
:10742000A93F1092D1003FC089818093D100823062
:1074300059F49B8180E02A8130E0822B932B90933A
:10744000D3008093D2002FC0813069F58091D000A5
:10745000882371F06091D2007091D3007695679582
:107460007093D3006093D20080E090E00E94B53822
:107470008FE268E00E947B3E8FE261E00E947B3EEB
:1074800080E061E00E947B3E0E94A23881E08BBFD9
:107490001BBEEFBE81E180935700E895E091CC00E0
:1074A000F091CD000995EFBEC05CDF4F0FB6F894A8
:1074B000DEBF0FBECDBFCF91DF911F910F91FF9027
:1074C000EF90DF90CF9008951F920F920FB60F921A
:1074D00011242F933F934F935F936F937F938F93D9
:1074E0009F93AF93BF93EF93FF930E94FE3EFF9154
:1074F000EF91BF91AF919F918F917F916F915F912C
:107500004F913F912F910F900FBE0F901F901895A4
:1075100008958FE268E00E947B3E8CE262E10E9467
:107520007B3E8FE261E00E947B3E08950F931F93A4
:107530008C0180E260E40E947B3EF8016281605829
:1075400084E00E947B3EF8018281809362011F915A
:107550000F910895EF92FF920F931F93CF93DF93B4
:10756000E82E8AE0E89EE0011124C059DF4F2D810A
:107570003E812115310509F465C08B819C818217FC
:107580009307F0F50E2D10E0F801EE0FFF1FEE0F40
:10759000FF1FE05AFF4F818168E00E947B3E6D81B2
:1075A0007E814B815C81F8809B01241B350B8F2DE4
:1075B00090E08217930710F0F62EF41A000F111FB7
:1075C000000F111F005A1F4F69817A81640F751FC8
:1075D000298526952170F80183814F2D0E944B3E0D
:1075E0008B819C818F0D911D9C838B832D813E818E
:1075F0008217930718F0898582FF02C010E001C04E
:1076000011E0EE2DF0E0EE0FFF1FEE0FFF1FE05A2E
:10761000FF4F9181898580FD02C061E001C065E076
:10762000892F0E947B3E898591E0892789871123D4
:1076300049F0EE2039F480919B0061E00E947B3E8E
:107640001E821D82DF91CF911F910F91FF90EF90CD
:1076500008950F931F938C0180917900109274000C
:1076600010927300836080937900F8018281938186
:1076700061E770E00E94923E9093760080937500DF
:10768000F801268137812817390720F430937600D6
:1076900020937500E0917500F09176006091700084
:1076A000CF0170E00E948C3F892B19F080E090E0C0
:1076B00008C090E0E217F30708F091E081E0982716
:1076C000892F982F9170990F990F809179008B7F56
:1076D000892B8093790080E00E94AA3A1F910F9134
:1076E0000895AF92BF92CF92DF92EF92FF920F93E5
:1076F0001F93CF93DF9329E0829FE0011124C855A7
:10770000DF4FE980FA802B813C81E20EF31E00E01E
:1077100090E0880F991F880F991F49E9A42E40E037
:10772000B42EA80EB91E6C018AE990E0C80ED91ECD
:1077300024C0802F90E0810F911D2E2F30E028175C
:10774000390714F41E2F101BCB01810F911D481710
:10775000590710F4142F161BF6018081B701412F31
:107760000E94303E010F212F30E08B819C81820FDF
:10777000931F9C838B83E20EF31EF50180810E9490
:107780001B3E182F1F7051F0E8810E1738F46B81E3
:107790007C814D815E816417750758F2DF91CF912E
:1077A0001F910F91FF90EF90DF90CF90BF90AF901F
:1077B0000895FF920F931F93CF93DF93582F282F95
:1077C00030E0E901CC0FDD1FCC0FDD1FC856DF4FC5
:1077D000FFB6F89480915D019881892311F400E04F
:1077E00025C08901E3E0000F111FEA95E1F7020FC0
:1077F000131F08551F4FF80172836183458316825A
:1078000014821382852F0E94713BF80103819091AD
:107810005D0188818095892380935D018B8168E07B
:107820000E947B3E8B8165E00E947B3EFFBE802FE5
:10783000DF91CF911F910F91FF900895CF93DF9328
:1078400082E20E941B3EC82F85FF1DC083E268E0D4
:107850000E947B3EC6FF12C02091750030917600D9
:107860002115310559F0809173009091740028170B
:10787000390720F080E00E94AA3A05C080919B0061
:1078800061E00E947B3EDF91CF9108950F931F939B
:1078900088E00E941B3E082F182F86FF20C08BE136
:1078A0000E941B3E682F6C7F8BE10E947B3E80E232
:1078B0000E941B3E682F6F7780E20E947B3E85E02E
:1078C00060E00E947B3E84E060E80E947B3E80E2B4
:1078D00060E00E947B3E85E062E00E947B3E14FFF8
:1078E00010C089E060ED0E947B3E85E063E00E946D
:1078F0007B3E89E060EC0E947B3E85E063E00E9475
:107900007B3E07FF10C089E060E50E947B3E85E07A
:1079100062E00E947B3E87E20E941B3E682F61600E
:1079200087E20E947B3E1F910F910895FF920F9373
:107930001F93CF93DF938AE00E941B3EF82E909115
:107940005C018E70892B80935C01C4E6D0E001E07D
:1079500010E088818F2189F08A810E941B3EF80106
:10796000E25AFE4F8083808186FD07C090915C01C2
:1079700088818095892380935C0124960F5F1F4F37
:1079800080E0C037D80729F7609707E710E08881C3
:107990008F2131F0D801ED91FC91309709F00995D4
:1079A0002496065F1F4FB0E0C037DB0781F7DF91F9
:1079B000CF911F910F91FF900895CF93DF938EE0A9
:1079C0000E941B3EC82F84FF16C08091700090E07B
:1079D00020917500309176002817390760F083E216
:1079E00068E00E947B3E87E261E00E947B3E10924D
:1079F000760010927500C5FF03C08FE20E941B3E07
:107A0000C1FF03C08BE20E941B3EDF91CF9108951E
:107A10000F931F93DF93CF93CDB7DEB728970FB6A1
:107A2000F894DEBF0FBECDBF86E20E941B3E86FFEC
:107A30007FC08E010F5F1F4F88E0F80111928A9579
:107A4000E9F788E090E09093AE008093AD0010924B
:107A5000AC001092AB001093AA000093A90080E044
:107A60000E94713B87E268E00E947B3E83E268E00F
:107A70000E947B3E80E20E941B3E682F6F7780E26F
:107A80000E947B3E898190E08076907080329105E3
:107A9000A9F180349105B1F1892BD9F5F8018181E3
:107AA000883081F0893038F48530C9F0863071F043
:107AB0008823B9F12EC08A3069F08A30A0F08B306B
:107AC00041F515C081E26091630129C0C8010E949F
:107AD000293B27C081E260E00E947B3E0CC0C801C8
:107AE0000E94963A1EC0C8010E94893A1AC0F80145
:107AF0008281882371F483E265E011C0C8010E948D
:107B000093380FC0C8010E94923880E00E94AA3AC0
:107B100008C080E20E941B3E682F606880E20E94DD
:107B20007B3EF80180818823C9F483E265E014C0BC
:107B30008091700090E020917500309176002817B8
:107B4000390740F0109276001092750083E268E0E9
:107B50000E947B3E87E261E00E947B3E28960FB642
:107B6000F894DEBF0FBECDBFCF91DF911F910F9173
:107B70000895FF920F931F93CF93DF938CE00E94A1
:107B80001B3EF82E90915D018E70892B80935D01D4
:107B9000F0FE02C00E94083DCCE9D0E008EB10E006
:107BA00088818F21D9F089810E941B3E87FF10C0F8
:107BB00090915D0188818095892380935D018B81FF
:107BC00068E00E947B3E8B8165E00E947B3E06C0A0
:107BD000D801ED91FC91309709F009952496075F43
:107BE0001F4FB0E0C83ADB07D9F6DF91CF911F9164
:107BF0000F91FF9008959FB7F89485B78E7F85BF4A
:107C000085B7826085BF8BB780648BBF8A9881B34C
:107C1000886781BB82B38B7B82BB82B3886382BB64
:107C20009FBF08959698939894980000000083B39E
:107C3000949A939A08951F931FB7F8949FEF94BB5B
:107C400085BB969A9398959800000000959A939A10
:107C500014BA000000000E94123E1FBF1F91089539
:107C6000FB012FB7F8949FEF94BB85BB969A93982E
:107C700095980000959A939A14BA969808C093988C
:107C80009498000083B38193949A939A415044232B
:107C9000B1F72FBF0895FB013FB7F8949FEF94BB56
:107CA00085BB969A939895980000959A939A969882
:107CB000222349F413C0849185BB939895983196FB
:107CC000959A939A41504423B1F70AC0819185BB9C
:107CD000939895980000959A939A41504423B1F750
:107CE0003FBF089585BB9698939895980000000033
:107CF000959A939A08951F931FB7F89485BB8FEFB9
:107D000084BB969A9398959800000000959A939A50
:107D100000000000862F0E94723E000000001FBF7E
:107D20001F910895482FDB01923061F0933001F1EB
:107D3000913009F033C0409166015091670122E112
:107D400030E030C02091640130916501F9018491E7
:107D5000481720F5E42FF0E0EE0FFF1F3196E20FF9
:107D6000F31F45915491FA013296259134911AC02E
:107D70002091DE703091DF70F9018491481770F422
:107D8000E42FF0E0EE0FFF1F3196E20FF31F459155
:107D90005491FA018491282F30E004C020E030E0B3
:107DA00040E050E04D935C93C9010895282F815025
:107DB000833080F4822F90E0FC0133E0EE0FFF1F50
:107DC0003A95E1F7880F991FE80FF91FE059FF4F27
:107DD000708767830895982F8150833070F4892FBE
:107DE00090E0FC0143E0EE0FFF1F4A95E1F7E80F3A
:107DF000F91FE855FF4F7087678308951F93CF934E
:107E0000DF9310C0C4FF02C00E94DD3CC6FF02C069
:107E10000E94B93DC2FF02C00E94963CC1FF02C051
:107E20000E94463C86E00E941B3EC82FD0E0CE0157
:107E300086759070892B31F787E00E941B3E182FC2
:107E400087E060E00E947B3E87E0612F0E947B3EDE
:107E5000DF91CF911F91089580E061E00E947B3E09
:107E600080E00E941B3E80FDFBCF84E060E80E9422
:107E70007B3E80E260E40E947B3E83E268E00E94F9
:107E80007B3E87E269E00E947B3E8DE06FE00E94CE
:107E90007B3E8BE06FE00E947B3E89E068ED0E94B4
:107EA0007B3E8FE060E10E947B3E87E066ED0E94B2
:107EB0007B3E85E062E00E947B3E80E06CEC0E94AD
:107EC0007B3E0895CF92DF92EF92FF920F931F9324
:107ED0008C017B016A0181E062E00E947B3E10938D
:107EE000670100936601F0926501E0926401D0920F
:107EF000DF70C092DE701F910F91FF90EF90DF90C6
:107F0000CF900895982F8150833010F080E008952D
:107F1000892F0E94D93B0895AA1BBB1B51E107C0C2
:107F2000AA1FBB1FA617B70710F0A61BB70B881F09
:107F3000991F5A95A9F780959095BC01CD01089598
:107F4000FB01DC0102C001900D9241505040D8F776
:107F50000895DC0101C06D9341505040E0F7089551
:107F6000E199FECF9FBB8EBBE09A99278DB3089510
:107F7000262FE199FECF9FBB8EBB2DBB0FB6F89489
:0E7F8000E29AE19A0FBE01960895F894FFCFA1
:107F8E0001232221022B2A2904333231083B3A39AC
:107F9E00080000000000001E3C0040000000000031
:107FAE000000000040000000000000000000400043
:107FBE00000000000000000001262527022E2D2FB4
:107FCE0004363537083E3D3F08000000000000082B
:107FDE003D400000000000000000400000000000D6
:0C7FEE0000000040000000000000000047
:040000030000700089
:00000001FF
