:100000000C9438010C948D0A0C9455010C945501F4
:100010000C9455010C9455010C9455010C94550108
:100020000C9455010C9455010C94ED010C94550160
:100030000C9455010C9455010C9455010C945501E8
:100040000C9455010C9455010C9455010C945501D8
:100050000C945501220747077A07D0099E07B2077B
:100060000A08D009D0090D08D009D009D009D00953
:10007000D0090F081A0838084A08840810095009DE
:100080008F09A0090209F408AE09A007C7090000FA
:10009000000000000000020006000E001200140024
:1000A0001500170018001A001B001D001E0020007C
:1000B000210024002600270029002C002D003000FC
:1000C0003200350038003B003E004100440047004C
:1000D0004B004E00530057005C0060006500690053
:1000E0006F0074007A00800087008D0095009C00EE
:1000F000A400AB00B400BD00C600D100DA00E600E9
:10010000F000FC00080116012301320141015201F7
:100110006201730186019801AD01C201D901EF01AD
:10012000090222023D025A0276029602B702D90261
:10013000FB0223034A0374039F03CC03FC032D0437
:1001400062049904D404110550059405DA052306C8
:100150007006C10616077007CE0730089608030917
:100160007309EB09680AEB0A720B020C9D0C3B0D3C
:10017000DE0D910E470F0810CB10A01181126D13E8
:100180005614561560168617A318DC191E1B811C01
:10019000EC1D5E1FD1208F222924EA25DA27C529EC
:1001A000E12BF22D3730B9322335CB374B3A073DAF
:1001B000074057436046654A1E4EE251F055345A97
:1001C000935E42632868426D8B722F78347E688418
:1001D000C18ABF91E09812011001FF000008EB03F3
:1001E0000421000201020301090220000101008034
:1001F0001A0904000002FF00000007058202400007
:100200000A0705020240000A01E80104030904127A
:100210000342002E005300610075007400650072F7
:1002200000220341005600520049005300500020B4
:10023000006D006B003200200043006C006F006E08
:1002400000650020033000300030003000410030F5
:1002500000300031003200380032003500360058DE
:1002600000310032003300040B020F02210243026E
:1002700011241FBECFE5D8E0DEBFCDBF10E0A0E661
:10028000B0E0ECEFFBE202C005900D92AA3DB10791
:10029000D9F713E0AAEDB0E001C01D92A031B1077B
:1002A000E1F70E94220A0C94FC150C94000087B31D
:1002B0008E7587BB18BA089588B38E7188BBBE98B7
:1002C00087B3816A87BB0895E82F8091C30190911D
:1002D000C401079728F4EFB9779BFECF7FB126C002
:1002E0002091FA003091FB003695279560E870E088
:1002F00040E050E0862F8E2311F0C59A01C0C598CA
:10030000C9010197F1F7C79AC9010197F1F7B699A9
:10031000762BC9010197F1F7C798C9010197F1F749
:1003200066954F5F5F4F4830510521F7872F08953D
:100330008DB19EB11DB81EB82091FA003091FB001E
:10034000F9013197F1F7C79AF9013197F1F7C79899
:100350008DB99EB90895FF920F931F93162F072F03
:10036000F42E0E946401802F0E946401812F0E945C
:1003700064018F2D0E9464011F910F91FF900895D9
:100380000E946401089580E00E94640108959FB76F
:10039000F89413BE1092DF001092E0001092E1007A
:1003A0001092E20012BE89EF8CBF8BE083BF89B749
:1003B0008E7F89BF89B7826089BF9FBF08958FB73D
:1003C000F8942091DF003091E0004091E1005091DD
:1003D000E2008FBFB901CA0108951F920F920FB6B4
:1003E0000F9211248F939F93AF93BF938091DF005F
:1003F0009091E000A091E100B091E2000196A11D72
:10040000B11D8093DF009093E000A093E100B093D2
:10041000E200BF91AF919F918F910F900FBE0F900F
:100420001F9018952F923F924F925F926F927F92FA
:100430008F929F92BF92CF92DF92EF92FF920F9393
:100440001F93DF93CF93CDB7DEB7C45AD0400FB61A
:10045000F894DEBF0FBECDBF81E08E010F5F1F4F4E
:10046000B80140E40E945612B82EFF24EE24280161
:10047000682E772490E6292E90E0392E31C000D0E6
:1004800000D000D0EDB7FEB7319681E490E08C0F3C
:100490009D1F8E0D911DADB7BEB712969C938E9386
:1004A000119733822282D6018D916D01848315824A
:1004B0000E940F13E80E0F5F1F4F8DB79EB7069671
:1004C0000FB6F8949EBF0FBE8DBF0031110531F0FD
:1004D000C801880D991D861597058CF290E1F90EDB
:1004E000FB1410F0D20125C08F2D90E06201C80EE0
:1004F000D91E00E010E04C01EBCF9091DB00E92F1A
:10050000F0E0E450FF4F8C9180839F5F9093DB007D
:100510008091DB00803C10F01092DB008091DA00CB
:10052000803C28F48091DA008F5F8093DA00119686
:10053000BA94BB2011F7CC55DF4F0FB6F894DEBF4D
:100540000FBECDBFCF91DF911F910F91FF90EF9024
:10055000DF90CF90BF909F908F907F906F905F9033
:100560004F903F902F9008951F931FB7F89480915C
:10057000C1019091C201019749F48BE267E00E94AA
:1005800021111092C2011092C1010AC08BE263E0F6
:100590000E94211181E090E09093C2018093C101FB
:1005A0001FBF1F910895FC018181813019F4F894D7
:1005B0000E94D51208950F931F93182F0FB7F89428
:1005C0008BE268E00E9421116091C7017091C8011F
:1005D00062537E4F89E2412F20E00E9439110E9430
:1005E000B4028091C7019091C801810F911D909331
:1005F000C8018093C7018091CD018E7F8093CD018A
:100600000FBF1F910F9108951F931FB7F89480910A
:10061000CD0181608093CD012091C5013091C6014B
:100620008091C7019091C801281B390B20343105F6
:1006300010F080E408C08091CD0181FF06C0211533
:10064000310519F0822F0E94DB021FBF1F91089510
:100650001F931FB7F8942091C5013091C601F9018D
:10066000E253FE4F80832F5F3F4F3093C6012093AC
:10067000C5018091CD0180FF10C02091C50130914E
:10068000C6018091C7019091C801805C9F4F2817D7
:10069000390718F080E40E94DB021FBF1F91089504
:1006A0002FB7F8949091CD0191609093CD019091E6
:1006B000CD019D7F9093CD01E5ECF1E01182108298
:1006C0003296118210822FBF0E94280308951F9333
:1006D0000E9428031FB7F8948091CD018260809317
:1006E000CD018091CD0180FF12C02091C5013091D4
:1006F000C6018091C7019091C801281B390B213494
:10070000310510F020E430E0822F0E94DB021FBF91
:100710001F910895CF92DF92EF92FF920F931F9354
:10072000CF93DF938C01FC0181818D3318F482819A
:100730008D3328F08DE10E94500389EC2FC08DE1AC
:100740000E94500380E00E9428036801C0E0D0E0CE
:10075000EE24FF2415C0F60184810E946401282F35
:10076000F801838190E0C817D90734F0822F0E94E6
:1007700028030894E11CF11C21960894C11CD11C8B
:10078000F801818190E0C817D9072CF3828190E0AD
:10079000E816F90614F480E0E0CF80E00E946703D9
:1007A000DF91CF911F910F91FF90EF90DF90CF904D
:1007B0000895CF92DF92EF92FF920F931F93CF9302
:1007C000DF93EC011092EC001092ED001092EE001D
:1007D0001092EF001092F4008FEF9FEF9093F900CA
:1007E0008093F8008091F7008A7F8093F7000E9441
:1007F0005C01DC9AC7988091CB019091CC01019764
:1008000061F4C0988AE090E00E94DD12C09A8AE00C
:1008100090E00E94DD12C0980BC0C09A8AE090E080
:100820000E94DD12C0988AE090E00E94DD12C09A1A
:100830008AE090E00E94DD1280E10E9450038B81EB
:1008400090E00E94DD128C8100E010E0C82EDD24D3
:1008500032C088850E9464018D8190E00E94DD1283
:1008600089850E9464018D8190E00E94DD128A8555
:100870000E946401E82E8D8190E00E94DD128B853C
:100880000E946401F82E8D8190E00E94DD128F811C
:10089000882359F0833021F48E81E81641F405C095
:1008A000843029F48E81F81611F480E008C00E948B
:1008B00098010F5F1F4FC016D10659F680EC0E94B9
:1008C0006703DF91CF911F910F91FF90EF90DF9021
:1008D000CF9008950F931F930FB7F8942091C701FD
:1008E0003091C8018091C5019091C6012817390740
:1008F000C0F58BE268E00E9421112091C501309182
:10090000C6018091C7019091C801805C9F4F8217FA
:10091000930710F410E40AC02091C5013091C6017C
:100920008091C7019091C801122F181B6091C701D7
:100930007091C80162537E4F89E2412F20E00E94EE
:1009400039118091C7019091C801810F911D909339
:10095000C8018093C7011092E4001092E3000E9446
:10096000B4020FBF1F910F9108959F92AF92BF9253
:10097000CF92DF92EF92FF920F931F93CF93DF936B
:10098000EC01D62E8091BF019091C001892B11F40A
:1009900000E41AC02A966623B1F085E18093CE0167
:1009A0008EEE91E09093DE008093DD008091E30075
:1009B0009091E4008D50914020F080EC8093CF0125
:1009C00002C01092CF0106E38091E3009091E40011
:1009D000202F30E02817390768F4821B930B90937F
:1009E000E4008093E30081E090E09093BE01809367
:1009F000BD0109C0082F1092E4001092E30010928C
:100A0000BE011092BD01DD20B1F18091CF0188239C
:100A100009F066C110E08091DD009091DE00BE011A
:100A2000402F50E00E94FF128091DD009091DE0087
:100A3000800F911F9093DE008093DD0051C1809163
:100A4000CF01882379F01092F4008091F7008E7F17
:100A50008093F70085E10E9450038091CF010E94AE
:100A6000670349C18EEE91E00091DD00081BC09044
:100A7000EB00EC0102C0C090EA00FF24EE2453E535
:100A8000B52E40E8942E31E8A32EB5C08091F70032
:100A900082FF1FC08091EC009091ED00A091EE00CC
:100AA000B091EF009D01442755278091F800909167
:100AB000F900A0E0B0E0281739074A075B0749F0C2
:100AC0003093F9002093F8008DE4B90140E00E94D2
:100AD000AB01DD2059F4F0FE04C08091E70088608E
:100AE00003C08091E700877F8093E7006091EC006E
:100AF0007091ED008091E70048810E94AB018091E8
:100B0000E50080FD45C083FF18C018EC8B2D8A9549
:100B1000F1F780EF60E070E040E00E94AB0190E010
:100B20009C012170307080FF02C0115079F7232B97
:100B300009F445C0A092F40042C082FF23C088811E
:100B40008C1501F1DD2059F4F0FE04C08091E9001C
:100B5000886003C08091E900877F8093E90018ECEA
:100B60008B2D8A95F1F76091EC007091ED008091EA
:100B7000E90040E00E94AB019881891701F1115012
:100B800079F7B6C08091E60090E00E94DD1217C0B0
:100B900088818C15A1F02091F70020FD10C0809174
:100BA000EC009091ED009093F6008093F5008E2D6F
:100BB0008170880F2D7F282B21602093F700DD2086
:100BC00011F4F0FE13C08091EC009091ED00A09123
:100BD000EE00B091EF000196A11DB11D8093EC00D5
:100BE0009093ED00A093EE00B093EF00F394219664
:100BF000E39481E0E822F01608F448CF8091E30006
:100C00009091E400892B09F076C08091E50081780D
:100C1000813809F052C06091F0007091F10080912C
:100C2000E80040E00E94AB018091E50086FF17C01C
:100C300018EC03E5802F8A95F1F780EF60E070E013
:100C400040E00E94AB0190E09C012170307080FF79
:100C500002C0115079F7232B81F181E826C085FF6E
:100C600027C08091F70080FF23C0DD2059F481FF69
:100C700004C08091E900886003C08091E900877F0B
:100C80008093E90018EC03E5802F8A95F1F76091D5
:100C9000F5007091F6008091E90040E00E94AB0100
:100CA0008C1559F4115081F780E88093F40005C049
:100CB0008091E60090E00E94DD12DD2011F483E1D6
:100CC00001C085E10E9450038091F4000E946703F7
:100CD0001092F4008091F7008E7F8093F7000BC094
:100CE0008091E3009091E400892B09F4A8CE03C021
:100CF0009092F40064CFDF91CF911F910F91FF90FC
:100D0000EF90DF90CF90BF90AF909F90089580E0DC
:100D100090E00E94101590E09093C4018093C3016D
:100D20008091C3019091C401843A910530F083E031
:100D300090E09093C4018093C30188B38F7188BB06
:100D4000BE9821EA27BBBC9A1DB81EB8E091C3012A
:100D5000F091C401EE0FFF1FE257FF4F8591949170
:100D60009093FB008093FA008091C3019091C4019D
:100D700083309105C1F08430910530F481309105C4
:100D800071F0029770F409C08530910599F08530B3
:100D9000910558F00697A1F40FC080E507C080E5E3
:100DA0000CC081E503C081E508C082E58DB981E012
:100DB0008EB9089582E501C083E58DB91EB8089506
:100DC000C798BE9827BB0895EF92FF920F931F9389
:100DD000CF93DF93EC018BE260E00E9421118BE264
:100DE00068E00E9421118091BD019091BE01892B84
:100DF00091F08091BC01833121F4CE0160E00E942A
:100E0000B5048091BC01853109F0CAC2CE0161E010
:100E10000E94B504C5C28091BC018093DC0088812A
:100E20008093BC01888190E0FC013197ED31F105A0
:100E300008F0B6C2E65DFF4FEE0FFF1F0590F4917C
:100E4000E02D099481E00E94500380E00E94280375
:100E50008AE00E94280381E40E94280386E50E941C
:100E6000280382E50E94280389E40E94280383E581
:100E70000E94280380E50E9428038FE50E94280332
:100E80008DE40E9428038BE40E94280350C08981CE
:100E9000883989F08E3961F58A81882329F4109286
:100EA000CC011092CB0124C081E090E09093CC0162
:100EB0008093CB011DC08A81843A10F083EA8A8333
:100EC0008A81282F30E08091C3019091C4012817B6
:100ED000390761F03093C4012093C3016091C301CD
:100EE0007091C40180E090E00E9418150E9487066E
:100EF00082E08DC083E00E94500380E00E942803BE
:100F00008981823991F0833938F4803909F43BC200
:100F1000813909F038C209C0883959F0813A09F499
:100F200032C2843909F02FC202C089E02DC282E3A7
:100F30002BC28091C3019091C40126C285E067C095
:100F40008CE10E94500380E00E9428038A810E9465
:100F500064018B810E9464018C810E9464010E9463
:100F6000C3010FC2898190E0A0E0B0E08093EC0063
:100F70009093ED00A093EE00B093EF00BA2FA92F4D
:100F8000982F88272A8130E040E050E0822B932B75
:100F9000A42BB52B8093EC009093ED00A093EE0072
:100FA000B093EF00BA2FA92F982F88272B8130E01C
:100FB00040E050E0822B932BA42BB52B8093EC00C8
:100FC0009093ED00A093EE00B093EF00BA2FA92FFD
:100FD000982F88272C8130E040E050E0822B932B23
:100FE000A42BB52B8093EC009093ED00A093EE0022
:100FF000B093EF0020E0898187FD21E0220F220FCE
:101000008091F7008B7F822B8093F70086E00E940F
:101010005003B9C10E94D512C3C18AE0F8CFCE01F6
:101020000E94D9038091F7008E7F8093F700109281
:10103000F400B6C18DE460E070E040E00E94AB01D6
:10104000DC98C09A87B38E7587BB18BA81E10E947D
:10105000500380E00E9467038091C9019091CA010A
:10106000892B09F09DC11092C2011092C10198C153
:101070008B810E9464018C810E94640180E00E9447
:10108000640180E00E946401898190E00E94DD1289
:1010900082E1BDCF8091BC01998180E02A8130E05E
:1010A000822B932B9093E4008093E3008B818093B9
:1010B000E5008C818093E6008D818093E7008E812E
:1010C0008093E8008F818093E90088858093EA000F
:1010D00089858093EB008091EC009091ED00A091C8
:1010E000EE00B091EF008093F0009093F100A09398
:1010F000F200B093F30081E090E09093C001809300
:10110000BF01CE0160E0C5C08091BC01998180E043
:101110002A81022F10E0082B192B8B818093E90084
:101120000D5F1F4F1093E4000093E3000350104045
:1011300084E10E94500380E00E942803F0E2EF2E39
:10114000E8E2FE2E4CC08091F70082FF1FC0809124
:10115000EC009091ED00A091EE00B091EF009D01A8
:10116000442755278091F8009091F900A0E0B0E065
:10117000281739074A075B0749F03093F900209395
:10118000F8008DE4B90140E00E94AB016091EC00F1
:101190007091ED008091E90040E00E94AB010E9457
:1011A00028038091E900803219F4F092E90015C01B
:1011B000E092E9008091EC009091ED00A091EE00AA
:1011C000B091EF000196A11DB11D8093EC009093AA
:1011D000ED00A093EE00B093EF0001501040011518
:1011E000110509F0B0CFCFC08A810E9464018B81C4
:1011F0000E9464018C810E9464010E94C301182F27
:101200008AE1B9C089810E9464018A810E946401D7
:101210008B810E9464018C810E94640189E18CC0F1
:101220008091BC01998180E02A8130E0822B932B50
:101230009093E4008093E3008B818093E5008C81A0
:101240008093E6008D818093E7008E818093E80093
:101250008F818093E90088858093EA008985809357
:10126000EB008091EC009091ED00A091EE00B09128
:10127000EF008093F0009093F100A093F200B09300
:10128000F30081E090E09093C0018093BF01CE0114
:1012900061E00E94B5041092C0011092BF0180C0AD
:1012A0008091BC0186E10E94500380E00E942803E7
:1012B000998180E02A81022F10E0082B192B0D5F05
:1012C0001F4F1093E4000093E300035010408B8104
:1012D0008093E90020C06091EC007091ED00809156
:1012E000E90040E00E94AB010E9428038091EC00DD
:1012F0009091ED00A091EE00B091EF000196A11D3C
:10130000B11D8093EC009093ED00A093EE00B0939C
:10131000EF000150104001151105E9F634C0898134
:101320000E9464018A810E9464018B810E94640191
:101330008C810E94640187E10E94500380E021C0FB
:101340008A810E9464018B810E9464018C810E94C9
:1013500064010E94C301182F88E10DC08A810E9498
:1013600064018B810E9464018C810E9464010E944F
:10137000C301182F8BE10E94500380E00E942803D4
:10138000812F0E94280380E00E94670309C080919A
:10139000BC011092CA011092C901CE010E948A03B9
:1013A000DF91CF911F910F91FF90EF900895DF9300
:1013B000CF93CDB7DEB7C054D0400FB6F894DEBFA0
:1013C0000FBECDBF3FB7F8948091DA00882379F142
:1013D0002091DA00213408F020E4DE011FC0909152
:1013E000DA008091DB00891740F4E091DB00809106
:1013F000DA00F0E0E054FF4F05C0E091DB0080919F
:10140000DA00F0E0E81BF109E450FF4F80818C9393
:101410008091DA0081508093DA00215011962223C6
:10142000F1F63FBFCE0101960E94E40601C03FBF26
:10143000C05CDF4F0FB6F894DEBF0FBECDBFCF91BB
:10144000DF910895EF92FF920F931F93DF93CF9355
:10145000CDB7DEB7C054D0400FB6F894DEBF0FBE94
:10146000CDBF0E94870687B38E7587BB18BA0E94CE
:10147000D21086ED91E068E072E047E652E00E940B
:1014800036121092BE011092BD0181E090E090935F
:10149000CA018093C9011092C8011092C7019093AC
:1014A000CC018093CB011092C2011092C10180E166
:1014B0008ABBDC98C09A81E064E073E00E94AA11C4
:1014C00078940E9400128E010F5F1F4F30E4E32ECC
:1014D000F12C81E00E94C40A8823D9F381E0B8018D
:1014E00040E40E94561290E0F701E81BF90B9801C6
:1014F000280F391FC90160E070E0AF010E94081396
:10150000C8010E94E406E5CF80E20E94E910682F3E
:10151000606880E20E94211108951F920F920FB619
:101520000F9211242F933F934F935F936F937F9369
:101530008F939F93AF93BF93EF93FF930E94D2112A
:10154000FF91EF91BF91AF919F918F917F916F919B
:101550005F914F913F912F910F900FBE0F901F9071
:101560001895E82F8FB7F894909103038FBFF0E0A0
:10157000EE0FFF1FEE0FFF1FE256FF4F80819823F3
:1015800009F091E0892F0895E82F8150833010F001
:1015900090E010C02FB7F89490910303F0E0EE0FA5
:1015A000FF1FEE0FFF1FE256FF4F8081982309F0C7
:1015B00091E02FBF892F0895E82F8150833010F0DC
:1015C00090E010C02FB7F89490910203F0E0EE0F76
:1015D000FF1FEE0FFF1FEA59FF4F8081982309F08C
:1015E00091E02FBF892F0895E82F8150833010F0AC
:1015F00090E010C02FB7F89490910303F0E0EE0F45
:10160000FF1FEE0FFF1FE256FF4F8081982309F066
:1016100091E02FBF892F089508952F923F924F9206
:101620005F927F928F929F92AF92BF92CF92DF9202
:10163000EF92FF920F931F93DF93CF93CDB7DEB757
:1016400028970FB6F894DEBF0FBECDBF9C01DE0118
:101650001396E5EDF0E083E001900D928150E1F703
:10166000DE011696E2EDF0E083E001900D928150EC
:10167000E1F7F90182819381907001979260BE0138
:101680006F5F7F4F0E9466114C01E981FA810491DE
:101690008B8160E00E9421118C8160E00E94211109
:1016A0008D8160E00E9421118E8160E00E942111F5
:1016B0008F8160E00E942111888560E00E942111E5
:1016C000802F77247394CC24C39405E0202E312CF2
:1016D0002C0E3D1E12E0412E512C4C0E5D1E7BC087
:1016E000E981FA81319684913197853009F06AC099
:1016F0003296D490329625913491D7FE36C0F3E0DD
:10170000F71508F45FC0072D10E0F801EE0FFF1F7A
:10171000C801A3E0880F991FAA95E1F7E80FF91F08
:10172000EA58FF4F20837801EE0CFF1CEE0CFF1CE3
:1017300086E690E0E80EF91EF701818168E00E94DC
:101740002111040D151DFFE6DF2280E1D82AF801E2
:1017500080816D2D0E94211180910203F7019081FB
:10176000892B8093020373942DC0F3E0FC1550F194
:101770000C2D10E0F80173E0EE0FFF1F7A95E1F7F2
:10178000E00FF11FE255FF4F20837801EE0CFF1CA4
:10179000EE0CFF1C8EE990E0E80EF91EF701838144
:1017A00068E00E942111020D131DF0E1DF2AF8010B
:1017B00080816D2D0E942111F701838165E00E94D7
:1017C0002111C3948A189B08E981FA81EA0DFB1D57
:1017D000FA83E9838491882331F0A82EBB248A14EC
:1017E0009B0408F07DCF28960FB6F894DEBF0FBE9D
:1017F000CDBFCF91DF911F910F91FF90EF90DF90C0
:10180000CF90BF90AF909F908F907F905F904F90C0
:101810003F902F9008950F931F938C0180E260E416
:101820000E942111F8016281605884E00E94211118
:10183000F8018281809308031F910F910895FF9210
:101840000F931F93082F81508330D8F4FFB6F8947C
:101850009091030310E0000F111F000F111F02569B
:101860001F4FF80180818095892380930303838132
:1018700068E00E942111F801838165E00E94211136
:10188000FFBE1F910F91FF9008951F93E82F815085
:10189000833068F41FB7F894F0E0EE0FFF1FEE0FEF
:1018A000FF1FEA59FF4F83810E9421111FBF1F9123
:1018B0000895FC0180818370823009F046C08481E4
:1018C00095818F7090708330910501F1843091057E
:1018D00030F48130910561F00297B9F510C0853080
:1018E000910511F185309105C0F0069771F525C07D
:1018F00088E20E94E910682F606888E21BC08CE2D1
:101900000E94E910682F60688CE214C080E30E9496
:10191000E910682F606880E30DC084E30E94E9103D
:10192000682F606884E306C088E30E94E910682F8E
:10193000606888E30E94211108958CE30E94E910F9
:10194000682F60688CE30E9421110895FC0180815A
:101950008370823009F046C0848195818F709070C9
:101960008330910501F18430910530F48130910587
:1019700061F00297B9F510C08530910511F18530FD
:101980009105C0F0069771F525C088E20E94E91024
:10199000682F6F7788E21BC08CE20E94E910682FE5
:1019A0006F778CE214C080E30E94E910682F6F7794
:1019B00080E30DC084E30E94E910682F6F7784E311
:1019C00006C088E30E94E910682F6F7788E30E94C1
:1019D000211108958CE30E94E910682F6F778CE342
:1019E0000E94211108950F931F9388E00E94E9102F
:1019F000082F182F86FF20C08BE10E94E910682F66
:101A00006C7F8BE10E94211180E20E94E910682F17
:101A10006F7780E20E94211185E060E00E94211131
:101A200084E060E80E94211180E260E00E942111C0
:101A300085E062E00E94211114FF10C089E060ED92
:101A40000E94211185E063E00E94211189E060EC91
:101A50000E94211185E063E00E94211107FF10C060
:101A600089E060E50E94211185E062E00E94211179
:101A700087E20E94E910682F616087E20E942111CD
:101A80001F910F910895FF920F931F93CF93DF93B0
:101A90008AE00E94E910F82E909102038E70892B43
:101AA00080930203CAE6D0E001E010E088818F2134
:101AB00089F08A810E94E910F801EC5FFC4F808375
:101AC000808186FD07C090910203888180958923DB
:101AD0008093020324960F5F1F4F80E0C637D8071C
:101AE00029F760970DE710E088818F2131F0D80148
:101AF000ED91FC91309709F009952496065F1F4FF0
:101B0000B0E0C637DB0781F7DF91CF911F910F91CE
:101B1000FF9008951F93E82F8150833010F080E0EC
:101B20000DC01FB7F894F0E0EE0FFF1FEE0FFF1F80
:101B3000E056FF4F80810E94E9101FBF1F9108955A
:101B40001F93E82F8150833010F020E014C01FB79E
:101B5000F894F0E0EE0FFF1FEE0FFF1FE256FF4F6D
:101B600081810E94E91020E090E08F709070892BB5
:101B700009F021E01FBF822F1F9108950F931F933B
:101B8000E82F8150833098F40FB7F894F0E0EE0F0F
:101B9000FF1FEE0FFF1FEA59FF4F1181812F0E9497
:101BA000E910682F6B7F812F0E9421110FBF1F91B9
:101BB0000F910895EF92FF920F931F93082F81507A
:101BC0008330F0F4EFB6F89410E0000F111F000F0F
:101BD000111F0A591F4FF801F1808F2D0E94E91043
:101BE000682F6095647063608F2D0E942111909121
:101BF0000203F80180818095892380930203EFBE60
:101C00001F910F91FF90EF900895CF93DF938EE097
:101C10000E94E910C82F84FF16C08091760090E0E2
:101C200020917B0030917C002817390760F083E217
:101C300068E00E94211187E261E00E942111109268
:101C40007C0010927B00C5FF03C08FE20E94E91068
:101C5000C1FF03C08BE20E94E910DF91CF9108958C
:101C6000EF92FF920F931F93CF93DF93E82E8AE0BA
:101C7000E89EE0011124CA58DF4F2D813E812115D5
:101C8000310509F465C08B819C8182179307F0F5BB
:101C90000E2D10E0F801EE0FFF1FEE0FFF1FEA59A7
:101CA000FF4F818168E00E9421116D817E814B810F
:101CB0005C81F8809B01241B350B8F2D90E08217EF
:101CC000930710F0F62EF41A000F111F000F111FCA
:101CD0000A591F4F69817A81640F751F29852695DE
:101CE0002170F80183814F2D0E9439118B819C81D5
:101CF0008F0D911D9C838B832D813E8182179307CD
:101D000018F0898582FF02C010E001C011E0EE2DBD
:101D1000F0E0EE0FFF1FEE0FFF1FEA59FF4F91811A
:101D2000898580FD02C061E001C065E0892F0E94C5
:101D30002111898591E089278987112349F0EE20B7
:101D400039F48091A10061E00E9421111E821D8260
:101D5000DF91CF911F910F91FF90EF9008950F9316
:101D60001F938C0180917F0010927A00109279006D
:101D7000836080937F00F8018281938167E770E040
:101D80000E94661190937C0080937B00F80126816D
:101D900037812817390720F430937C0020937B008B
:101DA000E0917B00F0917C0060917600CF0170E0C3
:101DB0000E94EB12892B19F080E090E008C090E0BF
:101DC000E217F30708F091E081E09827892F982F18
:101DD0009170990F990F80917F008B7F892B809351
:101DE0007F0080E00E94300E1F910F910895CF93E5
:101DF000DF9382E20E94E910C82F85FF1DC083E2B5
:101E000068E00E942111C6FF12C020917B00309132
:101E10007C002115310559F08091790090917A006C
:101E20002817390720F080E00E94300E05C080910D
:101E3000A10061E00E942111DF91CF910895AF923E
:101E4000BF92CF92DF92EF92FF920F931F93CF93A7
:101E5000DF9329E0829FE0011124C255DF4FE98022
:101E6000FA802B813C81E20EF31E00E090E0880FA7
:101E7000991F880F991F1FE9A12E10E0B12EA80EFF
:101E8000B91E6C0180EA90E0C80ED91E24C0802FD4
:101E900090E0810F911D2E2F30E02817390714F4A0
:101EA0001E2F101BCB01810F911D4817590710F4ED
:101EB000142F161BF6018081B701412F0E940211D9
:101EC000010F212F30E08B819C81820F931F9C8317
:101ED0008B83E20EF31EF50180810E94E910182F1A
:101EE0001F7051F0E8810E1738F46B817C814D81B1
:101EF0005E816417750758F2DF91CF911F910F91A2
:101F0000FF90EF90DF90CF90BF90AF900895FF9239
:101F10000F931F93CF93DF93582F282F30E0E901C1
:101F2000CC0FDD1FCC0FDD1FC256DF4FFFB6F8947C
:101F3000809103039881892311F400E025C0890171
:101F4000E3E0000F111FEA95E1F7020F131F02559E
:101F50001F4FF801728361834583168214821382B6
:101F6000852F0E941F0FF801038190910303888140
:101F700080958923809303038B8168E00E9421115F
:101F80008B8165E00E942111FFBE802FDF91CF91F0
:101F90001F910F91FF9008950F931F93DF93CF939D
:101FA000CDB7DEB728970FB6F894DEBF0FBECDBF12
:101FB00086E20E94E91086FF92C08E010F5F1F4FDC
:101FC00088E0F80111928A95E9F788E090E0909313
:101FD000B4008093B3001092B2001092B10010933D
:101FE000B0000093AF0080E00E941F0F87E268E01E
:101FF0000E94211183E268E00E94211180E20E9488
:10200000E910682F6F7780E20E942111898190E0AA
:10201000807690708032910509F447C08034910534
:1020200009F447C0892B09F04BC0F8018181863043
:1020300021F1873050F48130A1F0813008F448C09C
:10204000833099F08530E1F521C0893019F18A306B
:1020500018F48830A9F50DC08A3099F08B3081F5DD
:102060001DC0C8010E94A60C33C0C8010E94590CB3
:102070002FC081E26091090329C0C8010E94AF0E00
:1020800027C081E260E00E9421110CC0C8010E94BB
:102090000B0C1EC0C8010E940D0B1AC0F8018281F2
:1020A000882371F483E265E011C0C8010E94840AAC
:1020B0000FC0C8010E94D30280E00E94300E08C009
:1020C00080E20E94E910682F606880E20E9421117E
:1020D000F80180818823C9F483E265E014C080910F
:1020E000760090E020917B0030917C002817390722
:1020F00040F010927C0010927B0083E268E00E9426
:10210000211187E261E00E94211128960FB6F89410
:10211000DEBF0FBECDBFCF91DF911F910F9108950C
:10212000FF920F931F93CF93DF938CE00E94E910EF
:10213000F82E909103038E70892B80930303F0FE99
:1021400002C00E94CC0FC2EAD0E00EEB10E0888102
:102150008F21D9F089810E94E91087FF10C09091EA
:102160000303888180958923809303038B8168E032
:102170000E9421118B8165E00E94211106C0D801C7
:10218000ED91FC91309709F009952496075F1F4F58
:10219000B0E0CE3ADB07D9F6DF91CF911F910F91D6
:1021A000FF9008959FB7F89485B78E7F85BF85B758
:1021B000826085BF8BB780648BBF8A9881B3886744
:1021C00081BB82B38B7B82BB82B3886382BB9FBFA0
:1021D00008952FB7F8949FEF94BB85BB969A939878
:1021E000959800000000959A939A14BA0000000098
:1021F0009698939894980000000083B3949A939AC9
:102200002FBF0895FB012FB7F8949FEF94BB85BBB8
:10221000969A9398959800000000959A939A14BA0C
:1022200096980BC00000000093989498000000005E
:1022300083B38193949A939A4150442399F72FBF83
:1022400008952FB7F8949FEF94BB85BB969A939807
:10225000959800000000959A939A0000969865BBA7
:1022600000009398959800000000959A939A2FBFCC
:102270000895FB013FB7F8949FEF94BB85BB969AF6
:102280009398959800000000959A939A000096986C
:10229000222359F417C0849185BB00009398959828
:1022A00031960000959A939A41504423A1F70CC0AF
:1022B000819185BB00009398959800000000959A45
:1022C000939A41504423A1F73FBF0895482FDB0163
:1022D000923061F0933001F1913009F033C04091B8
:1022E0000E0350910F0322E130E030C020910A0329
:1022F00030910B03F9018491481720F5E42FF0E0A9
:10230000EE0FFF1F3196E20FF31F45915491FA0132
:102310003296259134911AC020910C0330910D030F
:10232000F9018491481770F4E42FF0E0EE0FFF1FDD
:102330003196E20FF31F45915491FA018491282FB1
:1023400030E004C020E030E040E050E04D935C938A
:10235000C9010895282F8150833080F4822F90E0A6
:10236000FC0133E0EE0FFF1F3A95E1F7880F991F4C
:10237000E80FF91FEA58FF4F708767830895982F79
:102380008150833070F4892F90E0FC0143E0EE0F20
:10239000FF1F4A95E1F7E80FF91FE255FF4F7087DD
:1023A000678308951F93CF93DF9310C0C4FF02C0CB
:1023B0000E94050EC6FF02C00E949010C2FF02C01C
:1023C0000E94430DC1FF02C00E94F30C86E00E94F0
:1023D000E910C82FD0E0CE0186759070892B31F7B7
:1023E00087E00E94E910182F87E060E00E94211129
:1023F00087E0612F0E942111DF91CF911F910895F5
:1024000080E061E00E94211180E00E94E91080FDDF
:10241000FBCF84E060E80E94211180E260E40E942A
:10242000211183E268E00E94211187E269E00E94A5
:1024300021118DE06FE00E9421118BE06FE00E947E
:10244000211189E068ED0E9421118FE060E10E9476
:10245000211187E066ED0E94211185E062E00E9473
:10246000211180E06CEC0E9421110895CF92DF923F
:10247000EF92FF920F931F938C017B016A0181E021
:1024800062E00E94211110930F0300930E03F0925B
:102490000B03E0920A03D0920D03C0920C031F912C
:1024A0000F91FF90EF90DF90CF900895982F81507B
:1024B000833010F080E00895892F0E94870F0895DF
:1024C000FC01118210827783668375836483538352
:1024D000428353874287518740878FEF84870895CF
:1024E000FC012081318182819381281739071CF0FA
:1024F00020E030E016C0A681B7816D938285938578
:10250000019721F482819381A81BB90B938782875D
:10251000B783A6838081918101969183808321E096
:1025200030E0C9010895FC0180819181892BE1F39C
:10253000A481B5812D9180859185019721F48281B7
:102540009381A81BB90BB583A48391878087808171
:102550009181019791838083822F0895CF93DF9398
:10256000FC01EB0180819181181619061CF02FEFF8
:102570003FEF17C0A481B5812D918085918501978A
:1025800021F482819381A81BB90BB583A483918721
:10259000808780819181019791838083288321E0C6
:1025A00030E0C901DF91CF910895DC9AF894E09171
:1025B000D800F091D9000995089520E030E04AEF65
:1025C00050E005C0FA013197F1F72F5F3F4F281710
:1025D0003907C4F30895AA1BBB1B51E107C0AA1F0A
:1025E000BB1FA617B70710F0A61BB70B881F991FB4
:1025F0005A95A9F780959095BC01CD010895FB01EE
:10260000DC0102C001900D9241505040D8F708956E
:10261000DC0101C06D9341505040E0F70895AEE0F9
:10262000B0E0E5E1F3E10C94D3150D891E8986E055
:102630008C831A8309838FEF9FE79E838D839E018E
:10264000275E3F4FCE0101966F89788DA9010E94C8
:1026500033132F813885020F131FF80110822E9635
:10266000E4E00C94EF15ABE0B0E0E9E3F3E10C94A7
:10267000C5153C012B015A01FC011782168283818A
:1026800081FD03C06FEF7FEFC6C19AE0892E1E0166
:102690000894211C311CF3012381F20123FD859153
:1026A00023FF81912F01882309F4B2C1853239F4C7
:1026B00023FD859123FF81912F01853229F490E03C
:1026C000B3010E943B15E7CF982FFF24EE249924F5
:1026D000FFE1FF15D0F09B3269F09C3228F4903274
:1026E00059F0933291F40EC09D3249F0903369F461
:1026F00041E024C052E0F52A84E0F82A28C098E09E
:10270000F92A25C0E0E1FE2A22C0F7FC29C0892F62
:1027100080538A3070F4F6FE05C0989C902C1124EA
:10272000980E15C0E89CE02C1124E80EF0E2FF2A78
:102730000EC09E3229F4F6FC6BC140E4F42A07C0B7
:102740009C3619F450E8F52A02C0983649F4F20193
:1027500023FD959123FF91912F01992309F0B8CF83
:10276000892F8554833018F08052833038F444E048
:1027700050E0A40EB51E5FE359830FC0933631F0CD
:10278000933779F0933509F056C020C0F501808168
:10279000898342E050E0A40EB51E610101E010E023
:1027A00012C0F501C080D180F6FC03C06FEF7FEF4F
:1027B00002C0692D70E042E050E0A40EB51EC601D3
:1027C0000E9430158C015FE7F52214C0F501C0802E
:1027D000D180F6FC03C06FEF7FEF02C0692D70E07F
:1027E00042E050E0A40EB51EC6010E9425158C01E2
:1027F00050E8F52AF3FE07C01AC080E290E0B3016A
:102800000E943B15EA948E2D90E008171907A8F353
:102810000EC0F601F7FC8591F7FE81916F0190E003
:10282000B3010E943B15E110EA94015010400115DC
:10283000110579F7EAC0943611F0993669F5F7FE7B
:1028400008C0F501208131814281538184E090E00C
:102850000AC0F501808191819C01442737FD409594
:10286000542F82E090E0A80EB91E9FE6F92257FF90
:1028700009C050954095309521953F4F4F4F5F4F80
:10288000E0E8FE2ACA01B901A1012AE030E00E9475
:102890006715D82ED21840C0953729F41F2D1F7EFA
:1028A0002AE030E01DC01F2D197F9F3661F0903760
:1028B00020F4983509F0ACC00FC0903739F0983744
:1028C00009F0A6C004C028E030E00AC0106114FD81
:1028D000146020E130E004C014FD166020E132E015
:1028E00017FF08C0F501608171818281938144E006
:1028F00050E008C0F50180819181BC0180E090E04A
:1029000042E050E0A40EB51EA1010E946715D82E2A
:10291000D2188FE7F82EF122F6FE0BC05EEFF522FB
:10292000D91438F4F4FE07C0F2FC05C08FEEF8228B
:1029300002C01D2D01C0192DF4FE0DC0FE01ED0DCC
:10294000F11D8081803319F499EEF92208C01F5FD0
:10295000F2FE05C003C08F2D867809F01F5F0F2D92
:10296000F3FC14C0F0FE0FC01E1510F09D2C0BC020
:102970009D2C9E0C911A1E2D06C080E290E0B301A2
:102980000E943B151F5F1E15C0F304C01E1510F4F6
:10299000E11A01C0EE2404FF0FC080E390E0B30110
:1029A0000E943B1502FF1DC001FD03C088E790E0B7
:1029B0000EC088E590E00BC0802F867891F001FF73
:1029C00002C08BE201C080E2F7FC8DE290E0B3012F
:1029D0000E943B1506C080E390E0B3010E943B15C6
:1029E0009A94D914C0F3DA94F101ED0DF11D8081B0
:1029F00090E0B3010E943B15DD20A9F706C080E2FC
:102A000090E0B3010E943B15EA94EE20C1F743CE5B
:102A1000F30166817781CB012B96E2E10C94E115FD
:102A2000E199FECF9FBB8EBBE09A99278DB30895A5
:102A3000262FE199FECF9FBB8EBB2DBB0FB6F8941E
:102A4000E29AE19A0FBE01960895FC01059061504B
:102A500070400110D8F7809590958E0F9F1F0895B4
:102A6000FC016150704001900110D8F7809590955D
:102A70008E0F9F1F08950F931F93CF93DF938C01A9
:102A8000EB018B8181FF1BC082FF0DC02E813F8136
:102A90008C819D812817390764F4E881F9810193BD
:102AA000F983E88306C0E885F985802F0995892B8D
:102AB00031F48E819F8101969F838E8302C00FEF38
:102AC0001FEFC801DF91CF911F910F910895FA0177
:102AD000AA27283051F1203181F1E8946F936E7F5D
:102AE0006E5F7F4F8F4F9F4FAF4FB1E03ED0B4E04E
:102AF0003CD0670F781F891F9A1FA11D680F791F8F
:102B00008A1F911DA11D6A0F711D811D911DA11D9F
:102B100020D009F468943F912AE0269F11243019AF
:102B2000305D3193DEF6CF010895462F4770405D4A
:102B30004193B3E00FD0C9F7F6CF462F4F70405DF9
:102B40004A3318F0495D31FD4052419302D0A9F754
:102B5000EACFB4E0A6959795879577956795BA954E
:102B6000C9F700976105710508959B01AC010A2E14
:102B700006945795479537952795BA95C9F7620FEB
:102B8000731F841F951FA01D08952F923F924F928F
:102B90005F926F927F928F929F92AF92BF92CF92ED
:102BA000DF92EF92FF920F931F93CF93DF93CDB7F6
:102BB000DEB7CA1BDB0B0FB6F894DEBF0FBECDBF6E
:102BC00009942A88398848885F846E847D848C843F
:102BD0009B84AA84B984C884DF80EE80FD800C8148
:102BE0001B81AA81B981CE0FD11D0FB6F894DEBF2B
:0C2BF0000FBECDBFED010895F894FFCF9B
:102BFC0020253032780001232221022B2A2904338C
:102C0C003231083B3A3908000000000000F70E0092
:102C1C004000000000000000000040000000000028
:102C2C000000000040000000000000000000012631
:102C3C002527022E2D2F04363537083E3D3F080040
:102C4C000000000000CC0F4000000000000000005D
:102C5C0040000000000000000040000000000000E8
:0A2C6C0000002C343C2830380038FA
:00000001FF
